:100000000C9434000C9451000C9451000C94990001
:100010000C9451000C9451000C9451000C9451001C
:100020000C9451000C9451000C9451000C9451000C
:100030000C9451000C9451000C949E010C945100AE
:100040000C9451000C9451000C9451000C945100EC
:100050000C9451000C9451000C9451000C945100DC
:100060000C9451000C94510011241FBECFEFD8E026
:10007000DEBFCDBF11E0A0E0B1E0EEE0F6E002C0EF
:1000800005900D92A231B107D9F711E0A2E1B1E0DC
:1000900001C01D92A132B107E1F70E9477020C94D2
:1000A00005030C94000087EC80937C0086E080932D
:1000B0007A000895449A1BB88FE59AEE0197F1F7FC
:1000C00000C0000080917A00806180937A00809166
:1000D0007A00806C80937A0080917A0084FFFCCF54
:1000E0004498809178002091790030E0322F2227C7
:1000F000A901662757FD6095762F9A01AB01282B41
:10010000A2E4B1E00E949F0224E630E040E050E02B
:100110000E94BE02C9010895682F8AE090E00C9405
:10012000F7028AE090E00E94EF028A3008F089E04E
:1001300008951F920F920FB60F9211248F939F93E1
:10014000000095B182E0892785B99F918F910F902A
:100150000FBE0F901F90189580931201089583E6AB
:1001600087BD82E084BD85BDA99AEEE6F0E080817E
:10017000826080830895809318010895CF93DF9360
:1001800000D000D0CDB7DEB784E0898382E08A83D7
:1001900081E08B8388E08C8380911C018F5F8430A9
:1001A00018F480931C0102C010921C01E0911C0104
:1001B000F0E0E35EFE4FE081F0E0EE5FFE4F808115
:1001C0008BB980910101813019F0833031F00AC080
:1001D00080911D0180FF06C004C080911C01823007
:1001E00009F45B9A98B180911C01FE01E80FF11DA2
:1001F00081818095892388B90F900F900F900F907F
:10020000DF91CF910895EDE1F1E010821182128229
:10021000138208950E94030115BC1BB888B18F603A
:1002200088B983B7817F846083BFD89AE8E6F0E01D
:1002300080818160808383B7816083BF889583B725
:100240008E7F83BF0000108283B7817F83BF81E0F0
:1002500080930101109219018093000110921701FF
:100260001092160180E00E94AC0085B5826085BDC9
:10027000089580911D018F5F8A3018F480931D01CD
:1002800007C010921D0180911E018F5F80931E0197
:1002900080911E01863038F010921E0180911F015E
:1002A0008F5F80931F0180911F018A3038F0109278
:1002B0001F01809120018F5F809320018091200198
:1002C0008A3020F0109220010C940A010895EDE18B
:1002D000F1E08BE080838CE081838DE082838EE08F
:1002E000838308952AE030E0B9010E94AA02CB017D
:1002F000EDE1F1E0B9010E94AA028083CB01B901CE
:100300000E94AA028183CB01B9010E94AA028283C2
:100310008AE083830895809118018F5F8A3009F401
:1003200081E0809318018091180180931D018093D2
:100330001E0180931F018093200108951F920F9248
:100340000FB60F9211240F931F932F933F934F9348
:100350005F936F937F938F939F93AF93BF93CF934D
:10036000EF93FF93C3B1C170C0931B0120911A0199
:10037000C2130AC0809116019091170101969093C3
:1003800017018093160104C01092170110921601F4
:1003900000911601109117010333110558F0222323
:1003A00049F080910001882329F081E080931901B0
:1003B0008093010180911901882341F0C11106C089
:1003C000109219010E940301109201018091000115
:1003D000882381F0C1110EC00031174258F01092ED
:1003E0001501109214010E94670182E080930101BF
:1003F0001092000180910101843069F4CC2359F0FE
:10040000809118010E948C000E94030181E080937A
:1004100000018093010180911B0180931A0180915A
:1004200013018F5F8093130190911801891718F0C1
:1004300088B18F6088B9809113018A3068F00E947A
:10044000BE00109213018091140190911501019644
:1004500090931501809314018091140190911501DE
:10046000843F914080F180910101823069F028F44D
:10047000813029F50E94390122C0833059F084303F
:10048000F1F40E948B011BC00E945A000E9472016D
:1004900083E013C020911B018091160190911701F8
:1004A000222339F08031974250F081E00E94AC0065
:1004B00006C080329E4418F084E0809301011092BF
:1004C000150110921401FF91EF91CF91BF91AF915F
:1004D0009F918F917F916F915F914F913F912F915C
:1004E0001F910F910F900FBE0F901F9018958FEFD7
:1004F0008AB91BB88FE187B918B88EEE84B915B8E0
:1005000080916B00816080936B000E9491000E943B
:10051000BB000E94AF000E945300789483B7817F94
:1005200083BF83B7816083BF889583B78E7F83BF86
:10053000809112018823A9F30E940A01F2CF0E9440
:10054000E002A59F900DB49F900DA49F800D911D7A
:1005500011240895AA1BBB1B51E107C0AA1FBB1F92
:10056000A617B70710F0A61BB70B881F991F5A953F
:10057000A9F780959095BC01CD010895A1E21A2EAE
:10058000AA1BBB1BFD010DC0AA1FBB1FEE1FFF1F37
:10059000A217B307E407F50720F0A21BB30BE40B87
:1005A000F50B661F771F881F991F1A9469F76095CE
:1005B0007095809590959B01AC01BD01CF01089588
:1005C000A29FB001B39FC001A39F700D811D112494
:1005D000911DB29F700D811D1124911D0895F999EF
:1005E000FECF92BD81BDF89A992780B50895262F38
:1005F000F999FECF1FBA92BD81BD20BD0FB6F89408
:0E060000FA9AF99A0FBE01960895F894FFCF6A
:10060E000101D714E6B635B3F316F7B700E1E1F002
:02061E00F100E9
:00000001FF
