:100000000C9434000C9451000C9451000C948F000B
:100010000C9451000C9451000C9451000C9451001C
:100020000C9451000C9451000C9451000C9451000C
:100030000C9451000C9451000C947C010C945100D0
:100040000C9451000C9451000C9451000C945100EC
:100050000C9451000C9451000C9451000C945100DC
:100060000C9451000C94510011241FBECFEFD8E026
:10007000DEBFCDBF11E0A0E0B1E0E6E5F5E002C0F3
:1000800005900D92A231B107D9F711E0A2E1B1E0DC
:1000900001C01D92A032B107E1F70E9435020C9415
:1000A000A9020C94000087EC80937C0086E080938A
:1000B0007A000895449A1BB82FEF86E791E021500B
:1000C00080409040E1F700C0000080917A0080619C
:1000D00080937A0080917A00806C80937A0080917E
:1000E0007A0084FFFCCF44988091780020917900B9
:1000F00030E0322F2227A901662757FD6095762F21
:100100009A01AB01282BA2E4B1E00E94590224E637
:1001100030E040E050E00E947802C90108951F924B
:100120000F920FB60F9211248F939F93000095B1F9
:1001300082E0892785B99F918F910F900FBE0F9014
:100140001F90189580931201089587EC87BD82E077
:1001500084BD85BDA99AEEE6F0E08081826080834F
:100160000895CF93DF9300D000D0CDB7DEB784E001
:10017000898382E08A8381E08B8388E08C8380910D
:100180001B018F5F843018F480931B0102C0109212
:100190001B01E0911B01F0E0E45EFE4FE081F0E026
:1001A000EE5FFE4F80818BB980910101813019F0A3
:1001B000833031F00AC080911C0180FF06C004C06A
:1001C00080911B01823009F45B9A98B180911B01E8
:1001D000FE01E80FF11D81818095892388B90F9078
:1001E0000F900F900F90DF91CF91089580911C0197
:1001F0008F5F8A3018F480931C0107C010921C0195
:1002000080911D018F5F80931D0180911D018630BB
:1002100038F010921D0180911E018F5F80931E01A6
:1002200080911E018A3038F010921E0180911F01CA
:100230008F5F80931F0180911F018A3010F0109210
:100240001F010895ECE1F1E0108211821282138205
:1002500008950E94220115BC1BB888B18F6088B92F
:1002600083B7817F846083BFD89AE8E6F0E080811D
:100270008160808383B7816083BF889583B78E7FD9
:1002800083BF0000108283B7817F83BF81E08093AA
:100290000101109218018093000110921701109231
:1002A000160180E00E94A20085B5826085BD089598
:1002B000ECE1F1E08BE080838CE081838DE0828350
:1002C0008EE0838308952AE030E0B9010E94640241
:1002D000CB01ECE1F1E0B9010E9464028083CB0123
:1002E000B9010E9464028183CB01B9010E946402BA
:1002F00082838AE0838308951F920F920FB60F9234
:1003000011240F931F932F933F934F935F936F93FA
:100310007F938F939F93AF93BF93CF93EF93FF936D
:10032000C3B1C170C0931A0120911901C2130AC050
:100330008091160190911701019690931701809377
:10034000160104C0109217011092160100911601B7
:10035000109117010333110558F0222349F08091C1
:100360000001882329F081E0809318018093010126
:1003700080911801882341F0C11106C01092180124
:100380000E9422011092010180910001882381F0D6
:10039000C1110EC00031174258F010921501109291
:1003A00014010E94580182E0809301011092000123
:1003B000C0931901809113018F5F809313018230E4
:1003C00018F088B18F6088B9809113018A3068F085
:1003D0000E94B100109213018091140190911501B7
:1003E00001969093150180931401809114019091CE
:1003F0001501843F914028F180910101813019F469
:100400000E94F6001AC0823041F40E945A000E94F5
:10041000630183E08093010110C0833071F4809107
:100420001A01882351F080911601909117018031B3
:10043000974218F081E00E94A200109215011092DC
:100440001401FF91EF91CF91BF91AF919F918F9147
:100450007F916F915F914F913F912F911F910F91DC
:100460000F900FBE0F901F9018958FEF8AB91BB891
:100470008FE187B918B88EEE84B915B880916B00FA
:10048000816080936B000E94A5000E9453007894C5
:1004900083B7817F83BF83B7816083BF889583B72C
:1004A0008E7F83BF809112018823A9F30E942901C6
:1004B000F2CF0E949A02A59F900DB49F900DA49F29
:1004C000800D911D11240895AA1BBB1B51E107C08B
:1004D000AA1FBB1FA617B70710F0A61BB70B881FD4
:1004E000991F5A95A9F780959095BC01CD01089563
:1004F000A1E21A2EAA1BBB1BFD010DC0AA1FBB1F28
:10050000EE1FFF1FA217B307E407F50720F0A21B99
:10051000B30BE40BF50B661F771F881F991F1A9406
:1005200069F760957095809590959B01AC01BD0130
:10053000CF010895A29FB001B39FC001A39F700D8A
:10054000811D1124911DB29F700D811D1124911DDB
:060550000895F894FFCFAE
:100556000101D714E6B635B3F316F7B700E1E1F0BB
:02056600F100A2
:00000001FF
